:100000000C9462000C948A000C948A000C94EB13FC
:100010000C94EB130C94EB130C948A000C948A0050
:100020000C948A000C948A000C948A000C94241678
:100030000C948A000C948A000C948A000C948A0018
:100040000C9463140C948A000C94D3140C94AD1487
:100050000C948A000C948A000C948A000C948A00F8
:100060000C9405150C948A00000000002400270061
:100070002A0000000008000201000003040700003D
:1000800000000000000000000000230026002900FE
:1000900000000000250028002B00040404040404D0
:1000A0000404020202020202030303030303010227
:1000B00004081020408001020408102001020408F6
:1000C0001020451711241FBECFEFD8E0DEBFCDBFF3
:1000D00012E0A0E0B1E0EAE9FCE302C005900D9275
:1000E000A630B107D9F725E0A6E0B2E001C01D9225
:1000F000AC39B207E1F710E0C2E6D0E004C02197C6
:10010000FE010E94FD1CC136D107C9F70E9472187A
:100110000C944B1E0C940000862FE091E402F091A9
:10012000E502309711F0BA0109940895862FE09105
:10013000E202F091E302309711F0BA0109940895B8
:10014000862FE091E002F091E102309711F0BA01C0
:1001500009940895862FE091DE02F091DF02309736
:1001600011F0BA0109940895862FE091DC02F09114
:10017000DD02309711F0BA0109940895862FE091BD
:10018000DA02F091DB02309711F0BA010994089578
:100190000895862F642FE091E602F091E7023097F0
:1001A00011F0A90109940895E091E802F091E902A3
:1001B000309709F009940895A091E204B091E30406
:1001C000ED91FC9111970190F081E02D682FCD0108
:1001D00009941F93CF93DF93182FEB018091A9040B
:1001E0009091AA046817790760F48091A704909110
:1001F000A804C80FD91F188380E0DF91CF911F9109
:100200000895E091D604F091D704309711F481E07D
:10021000F4CF81E08093A6048091C2049091C3043E
:1002200009958091A9049091AA04C817D90778F775
:10023000DCCFCF93DF93EC01FB0130E020E0C9017C
:10024000880F991F8C179D0778F44081DB014D932F
:10025000BD0111979181979599279795942B9C9320
:100260002F5F3F4F3296EBCFC901DF91CF910895B9
:10027000CF92DF92EF92FF92CF93DF93EC016A016E
:100280007B01E889F98982E08083C11481EED80678
:10029000E104F104A1F060E079E08DE390E0A701D2
:1002A00096010E94AC1C2150310941095109569513
:1002B000479537952795211580E1380798F0E8890B
:1002C000F989108260E874E88EE190E0A701960158
:1002D0000E94AC1C2150310941095109569547959E
:1002E00037952795EC85FD853083EE85FF85208346
:1002F000188EEC89FD8986E08083EA89FB898081FC
:1003000080618083EA89FB89808188608083EA89B3
:10031000FB89808180688083EA89FB8980818F7D69
:100320008083DF91CF91FF90EF90DF90CF90089581
:10033000CF93DF93FC01A081B181109701F1EC0113
:10034000ED91FC9111970190F081E02D69EFCD01C5
:10035000099588819981DC01ED91FC910190F081F2
:10036000E02D62E0099588819981DC01ED91FC9195
:100370000190F081E02D65E0DF91CF910994DF914C
:10038000CF9108952091690330916A0328173907A6
:1003900071F49091680380916703981741F0E091A0
:1003A0006803F0E0E95DFC4F808190E008958FEFF5
:1003B0009FEF08950895EF92FF920F931F93CF93AD
:1003C000DF93DC015C96ED90FC905D97E114F10405
:1003D00079F481E090E013969C938E93129790E0CD
:1003E00080E0DF91CF911F910F91FF90EF900895E2
:1003F0005196ED91FC91529750968C915097982F71
:1004000090950FB75E962C915E97122F127021FD7A
:100410006095F8942081112319F1282B2083E7019E
:100420002197F1F728E0462F50E0308160FF1AC095
:10043000382B3083E7012197F1F7BA01759567955D
:10044000215089F7112381F08081892380830FBF98
:100450005C968D919C910197F1F781E090E0C1CF7E
:100460002923DCCF3923E5CF9081892BEFCF209151
:10047000690330916A032817390771F48091670383
:100480002091680390E0805C9F4F821B910960E49B
:1004900070E00E94E91C089590E080E008952091AA
:1004A000690330916A0328173907B9F490916803FA
:1004B00080916703981789F0E0916803F0E0E95DA7
:1004C000FC4F80812091680330E02F5F3F4F2F73F6
:1004D00033272093680390E008958FEF9FEF0895EE
:1004E000E0916903F0916A03E817F90769F4A389B9
:1004F000B4899C918589809589238C9310926A0395
:100500001092690381E0089580E00895CF93DF930E
:10051000EC018A8D9B8D892B01F18091690390916B
:100520006A038C179D07C9F0009711F00E947002B2
:100530008E8D8E7F8E8F1092670310926803D093FA
:100540006A03C0936903EB89FC8980819D89892BAB
:10055000808381E0DF91CF91089580E0FBCF90E030
:10056000FC01EE58FF4F2491FC01E255FF4F3491FE
:10057000FC01E656FF4FE491EE23C9F0222339F047
:10058000233001F1A8F4213019F1223029F1F0E0F3
:10059000EE0FFF1FE057FF4FA591B4918FB7F8946E
:1005A000EC91611126C030953E233C938FBF089596
:1005B0002730A9F02830C9F0243049F78091800015
:1005C0008F7D03C0809180008F7780938000DFCF84
:1005D00084B58F7784BDDBCF84B58F7DFBCF8091D1
:1005E000B0008F778093B000D2CF8091B0008F7D24
:1005F000F9CF3E2BDACFCF93DF9390E0FC01E255A9
:10060000FF4F249186569F4FFC0184918823C9F0A7
:1006100090E0880F991FFC01E859FF4FA591B49114
:10062000FC01E057FF4FC591D49161110DC09FB7F8
:10063000F8948C91209582238C9388812823288399
:100640009FBFDF91CF910895623051F49FB7F89426
:100650003C91822F809583238C93E8812E2BEFCFC2
:100660008FB7F894EC912E2B2C938FBFEACF8E305E
:1006700008F08E508770806480937C0080917A00AF
:10068000806480937A0080917A0086FDFCCF80910F
:1006900078009091790008953FB7F89480912303F2
:1006A00090912403A0912503B091260326B5A89B21
:1006B00005C02F3F19F00196A11DB11D3FBFBA2FF4
:1006C000A92F982F8827BC01CD01620F711D811DB4
:1006D000911D42E0660F771F881F991F4A95D1F739
:1006E00008958F929F92AF92BF92CF92DF92EF9236
:1006F000FF926B017C010E944C034B015C01C11411
:10070000D104E104F104B9F00E944C03681979099D
:100710008A099B09683E73408105910580F321E0B9
:10072000C21AD108E108F10888EE880E83E0981E0D
:10073000A11CB11CE4CFFF90EF90DF90CF90BF9051
:10074000AF909F908F900895009721F0805C9F4F0D
:100750000C9498010895AF92BF92CF92DF92EF92DE
:10076000FF920F931F93CF93DF936C017B018B015B
:10077000040F151FEB015E01AE18BF08C017D107AB
:1007800059F06991D601ED91FC910190F081E02D35
:10079000C6010995892B79F7C501DF91CF911F918A
:1007A0000F91FF90EF90DF90CF90BF90AF900895A2
:1007B000FC01538D448D252F30E0842F90E0821B67
:1007C000930B541710F0CF96089501970895FC01EC
:1007D000918D828D981761F0A28DAE0FBF2FB11D44
:1007E0005D968C91928D9F5F9F73928F90E008959C
:1007F0008FEF9FEF0895FC01918D828D981731F056
:10080000828DE80FF11D858D90E008958FEF9FEFA9
:100810000895FC01918D228D892F90E0805C9F4F7F
:10082000821B91098F73992708958BEB93E00E94A7
:10083000090421E0892B09F420E0822F089580E04B
:1008400090E0892B29F00E94150481110C9400007E
:100850000895FC01A48DA80FB92FB11DA35ABF4F55
:100860002C91848D90E001968F739927848FA689AF
:10087000B7892C93A089B1898C91837080648C9303
:10088000938D848D981306C00288F389E02D8081B2
:100890008F7D80830895EF92FF920F931F93CF93E4
:1008A000DF93EC0181E0888F9B8D8C8D98131AC0AB
:1008B000E889F989808185FF15C09FB7F894EE8992
:1008C000FF896083E889F9898081837080648083EF
:1008D0009FBF81E090E0DF91CF911F910F91FF903A
:1008E000EF900895F62E0B8D10E00F5F1F4F0F73E2
:1008F0001127E02E8C8D8E110CC00FB607FCFACF9D
:10090000E889F989808185FFF5CFCE010E9429040D
:10091000F1CFEB8DEC0FFD2FF11DE35AFF4FF0826D
:100920009FB7F8940B8FEA89FB8980818062CFCFD3
:10093000CF93DF93EC01888D8823B9F0AA89BB8916
:10094000E889F9898C9185FD03C0808186FD0DC001
:100950000FB607FCF7CF8C9185FFF2CF808185FF22
:10096000EDCFCE010E942904E9CFDF91CF91089508
:100970002091B502260F3327331F21323105ECF4C5
:1009800020919103FC0190E080E0243069F082E046
:100990000895A091B5022191AC014D565D4FA40F71
:1009A000B52FB11D2C930196861798F38091B5024F
:1009B000680F6093B50280E0089581E00895109279
:1009C000910381E08093900310926B0361E082E1D8
:1009D0000E94AF0261E083E10E94AF02E9EBF0E028
:1009E00080818E7F808380818D7F808388E4809367
:1009F000B80085E48093BC000895CF93DF9391E025
:100A0000909392028823B9F0C091B800D091BA00B7
:100A10008091BC008A7B8093BC0060E082E10E94F0
:100A2000AF0260E083E10E94AF020E94DF04D09336
:100A3000BA00C093B800DF91CF9108958F929F9232
:100A4000AF92BF92CF92DF92EF92FF920F931F93DC
:100A5000CF93DF93D091BA03D13208F0D7C0182FCB
:100A6000C091B9030E944C036B017C0180919103FA
:100A700081116BC082E080939103109390038FEFFC
:100A800080938F0310928E03D0938D03A9E9B3E076
:100A9000EDE6F3E080E0D81391C010926C038091F2
:100AA0006C03CC0FC82BC0936C0380916B03813017
:100AB00009F088C010926B030E944C036B017C010B
:100AC00080916C038093BB00809193039091940379
:100AD000A0919503B0919603892B8A2B8B2BA1F0C3
:100AE0000E944C030091930310919403209195036D
:100AF000309196036C197D098E099F090617170717
:100B00002807390708F442C08091BC0083FDD8CF84
:100B100085EC8093BC000E944C036B017C018091AA
:100B20009103823009F450C080918F038F3F09F404
:100B30006FC080918F03803209F46CC080918F0365
:100B4000803309F469C084E026C0809193039091BA
:100B50009403A0919503B0919603892B8A2B8B2B3C
:100B600009F484CF0E944C038090930390909403E7
:100B7000A0909503B09096036C197D098E099F098A
:100B800086169706A806B90608F070CF80919203E2
:100B90000E94FD0485E0109298031092BA0310920F
:100BA0009703DF91CF911F910F91FF90EF90DF900E
:100BB000CF90BF90AF909F908F9008959D9191930B
:100BC0008F5F69CF85EEA5CF8091930390919403B9
:100BD000A0919503B0919603892B8A2B8B2B09F456
:100BE0009ECF0E944C030091930310919403209197
:100BF0009503309196036C197D098E099F0906179C
:100C000017072807390708F08ACFC0CF81E0C3CF84
:100C100080E0C1CF82E0BFCF83E0BDCF08950895CB
:100C2000E091910280919002E81730F4F0E0E059F1
:100C3000FD4F808190E008958FEF9FEF0895909190
:100C40009102809190022FEF3FEF981748F4E92F1F
:100C5000F0E0E059FD4F208130E09F5F90939102DA
:100C6000C90108958091900290919102891B990B7E
:100C70000895CF92DF92EF92FF920F931F93CF933D
:100C8000DF937C01CB018A0120919703222389F015
:100C9000EB016B01C40ED51ECC15DD0569F0699121
:100CA000D701ED91FC910190F081E02DC7010995EC
:100CB000F3CF642F0E94B804C801DF91CF911F9138
:100CC0000F91FF90EF90DF90CF900895CF93DF9337
:100CD0001F92CDB7DEB76983209197032223F9F0E5
:100CE0002091BA03203258F021E030E0FC01338338
:100CF000228390E080E00F90DF91CF910895809162
:100D00009803E82FF0E0E756FC4F998190838F5FBE
:100D1000809398038093BA0381E090E0ECCF61E088
:100D2000CE0101960E94B804F7CF90E080E00895CC
:100D3000DF92EF92FF920F931F93CF93DF93EC011B
:100D4000D62E7A01890188818C3008F067C061E075
:100D50008D2D0E94FB028881282F30E0F901EE0FD3
:100D6000FF1FE20FF31FEC5DFA4F9D2D9F73608113
:100D7000607C692B608320E232E02E193F0937FF47
:100D800002C02D5F3F4F35952795359527952983CF
:100D900020E639E0201B310B37FF02C02D5F3F4FAB
:100DA00035952795359527952A832CE0622F0E944B
:100DB000DD1C829FB001112430E020E0AB01420F26
:100DC000531FFA01EE0FFF1FE40FF51FEC5DFA4F02
:100DD000908196FD16C02F5F3F4F2C30310571F783
:100DE00081110FC01092800082E0809381001092E8
:100DF000850010928400B19A80916F008260809388
:100E00006F00E8818E2F90E0FC01EE0FFF1FE80FCE
:100E1000F91FEC5DFA4F8081806480838881DF91C7
:100E2000CF911F910F91FF90EF90DF900895FC01FB
:100E3000693081F028F4683051F090E080E0089546
:100E40006A3059F06B30C9F781A592A5089583A146
:100E500094A1089585A196A1089587A190A50895CC
:100E600008954A30510559F4E62FF0E0E951FB4F5F
:100E700080818F3711F08AE0808381E0089580E0DF
:100E800008955F926F927F928F929F92AF92BF92DE
:100E9000CF92DF92EF92FF920F931F93CF93DF9346
:100EA0005C016901DA015C90232B19F4CC24CA940B
:100EB000DC2C8A013A01660E771ED0E0C0E0F12CEE
:100EC000E12C87E0882E912CF50180819181D80159
:100ED0006C910C2E01C0660F0A94EAF765296F77B2
:100EE000DC01ED91FC910190F081E02D0995BFEFBF
:100EF000EB1AFB0AF801608170E0C4018C1B9D0BAA
:100F000002C0759567958A95E2F7562E2196C730EF
:100F1000D10558F1CE14DF0441F1D5018D919C919A
:100F2000652D6F77DC01ED91FC910190F081E02D52
:100F30000995BFEFEB1AFB0A551C5524551C279742
:100F4000E6CFEC14FD0408F4BFCFDF91CF911F91E1
:100F50000F91FF90EF90DF90CF90BF90AF909F9058
:100F60008F907F906F905F9008950F5F1F4F601676
:100F7000710639F7209749F3EC14FD0430F7F501B9
:100F80008081918161E070E001C0660FCA95EAF747
:100F900061506521DC01ED91FC910190F081E02D23
:100FA000DF91CF911F910F91FF90EF90DF90CF9045
:100FB000BF90AF909F908F907F906F905F900994BB
:100FC0001F93CF93DF9300D0CDB7DEB7182F7A836E
:100FD00069838091A4049091A5040097C9F0DC0175
:100FE000ED91FC910190F081E02D1031B8F4611584
:100FF0007044A0F4612F606E099522E030E0AE01EC
:101000004F5F5F4F62E070E084EA94E00E94410726
:101010000F900F90DF91CF911F91089560EF099588
:101020008091A4049091A504DC01ED91FC910190C4
:10103000F081E02D6FE609958091A4049091A504BC
:10104000DC01ED91FC910190F081E02D612F09957B
:1010500022E030E0AE014F5F5F4F62E070E084EA73
:1010600094E00E9441078091A4049091A504DC01C2
:10107000ED91FC910190F081E02D67EF0995C8CFCB
:10108000EF92FF920F931F93CF93DF93C82F80911E
:10109000A4049091A5040097C9F17A018B01DC01A9
:1010A000ED91FC910190F081E02D60EF0995809128
:1010B000A4049091A504DC01ED91FC910190F081D4
:1010C000E02D6C2F0995E7010E0D1F1DC017D107EC
:1010D00059F030E020E0AE0161E070E084EA94E095
:1010E0000E9441072196F2CF8091A4049091A5041B
:1010F000DC01ED91FC910190F081E02D67EFDF9133
:10110000CF911F910F91FF90EF900994DF91CF91B4
:101110001F910F91FF90EF900895CF92DF92EF9281
:10112000FF920F931F93CF93DF93FC01E058FF4F83
:10113000E080EE2009F45CC0EC01C05CDF4FA881C8
:10114000B981109709F454C0FC01EF57FF4FC080DC
:10115000D180F60111810081ED91FC9111970190F0
:10116000F081E02D60EFCD01099588819981DC0146
:10117000ED91FC910190F081E02D69E7099588815E
:101180009981DC01ED91FC910190F081E02D602FBF
:10119000099588819981DC01ED91FC910190F081A4
:1011A000E02D612F0995F12C01E010E00F5F1F4F3A
:1011B000E016F10659F030E020E0A601400F511F83
:1011C00061E070E0CE010E944107F0CF88819981F3
:1011D000DC01ED91FC910190F081E02D67EFDF9152
:1011E000CF911F910F91FF90EF90DF90CF900994D6
:1011F000DF91CF911F910F91FF90EF90DF90CF90F3
:101200000895009711F00C948D080895CF938630BF
:10121000B0F421E030E0082E02C0220F331F0A9400
:10122000E2F74091180350911903672B51F4209570
:101230003095242335233093190320931803CF913D
:101240000895242B352B3093190320931803909184
:101250006E029111F4CFC82F0E943703BC018C2F6E
:10126000CF910C94E0075F926F927F928F929F9242
:10127000AF92BF92CF92DF92EF92FF920F931F93A4
:10128000CF93DF93833008F061C0D1E0D80FDD0F3A
:10129000DD0FDD0F5D2ED53110F044E1542EC62F49
:1012A000082FD8508D2E912CC401880F991F9C01B6
:1012B0002C593B4F5901D12CC12C10E07724739449
:1012C000D515C8F58EEF8D0F8231F8F4F601E80DD3
:1012D000F91DE951FB4F90819230B8F48C2F872192
:1012E00066246394811101C0612C7601EE0CFF1C11
:1012F000913089F4172937E9E30EF11CF501EE0D61
:10130000FF1D862D90E091838083770CDF5F8FEF48
:10131000C81AD80AD5CF882371F3F701E956FF4FD1
:10132000EA0DFB1D80819181019729F362E08D2FE9
:101330000E94FB02E0CF011119C0F8948BB16C2F11
:1013400068276C7F612368276BB97894DF91CF9110
:101350001F910F91FF90EF90DF90CF90BF90AF90D3
:101360009F908F907F906F905F9008950130D1F49F
:10137000C123F89495B1812F8F73809589239C2F79
:101380009F73892B85B988B1612F629566956695A3
:10139000637060956823C295C695C695C370C62BC9
:1013A000C8B9D3CF1F70F89498B1812F880F880FD8
:1013B00080958923C123CC0FCC0FC82BF1CF8F92FE
:1013C0009F92AF92BF92CF92DF92EF92FF920F93D4
:1013D0001F93CF93DF93EB01843108F098C0082F5F
:1013E00010E0F801E951FB4F9081933009F49CC063
:1013F000943009F08CC08250823108F081C0F8012D
:10140000EA5AFD4FC080D12C7601EE0CFF1C4B0137
:10141000603282E078070CF03EC0F701EC0DFD1D54
:10142000E75BFA4F8181A8E88A2E912C881A9108EF
:1014300087FD9394880C991C880C991C092C000C2E
:10144000AA08BB08828128E532E0281B310987FD04
:101450003395220F331F220F331F032E000C440B32
:10146000550B281939094A095B09DB01653B7105F0
:1014700014F0A4EBB0E0B7FF02C0B0E0A0E00E941F
:10148000A41C24EB30E040E050E00E947A1C820E65
:10149000931EA41EB51EF701EC0DFD1DE75BFA4F70
:1014A00020812C3068F5318188E890E0831B910918
:1014B00037FD9395880F991F880F991F88169906F5
:1014C0007CF0328188E592E0831B910937FD93958A
:1014D000880F991F880F991F881699060CF4C4016C
:1014E0000297880F991F4FB7F89430E0F901EE0F7B
:1014F000FF1FE20FF31FEC5DFA4F928381834FBF12
:10150000000F111FF801E550FB4FD183C083DF911D
:10151000CF911F910F91FF90EF90DF90CF90BF90F0
:10152000AF909F908F9008957B01D82F833041F02A
:101530008BEF800F823020F087EF800F833058F4DC
:1015400061E08D2F0E94FB02E114F10461F460E080
:101550008D2F0E94AF02000F111FF801E550FB4FC5
:10156000F182E082D4CF8FEFE816F10411F461E04C
:10157000EFCFF801EE58FF4FE491E33021F148F44A
:10158000E130B9F0E230D1F080E8E816F1047CF700
:10159000DECFE73011F1E83041F1E430A9F7809176
:1015A0008000806280938000F0928B00E0928A003D
:1015B000D2CF84B5806884BDE7BCCDCF84B58062CE
:1015C00084BDE8BCC8CF8091800080688093800093
:1015D000F0928900E0928800BECF8091B0008068D0
:1015E0008093B000E092B300B6CF8091B0008062EB
:1015F0008093B000E092B400AECF9EEF980F92318E
:1016000080F4E82FF0E0DF01A951BB4F9C919130AD
:1016100041F4EE0FFF1FE550FB4F608371830C9484
:10162000AF020895FF920F931F93CF93DF9300D0E3
:10163000CDB7DEB7082F10E0F801E651FD4F9081DD
:10164000F62EF92206591D4F411104C0F801908170
:101650009F1511F12F2D30E03A832983A091A40426
:10166000B091A5041097B1F0682F6F706069ED918B
:10167000FC9111970190F081E02DCD01099522E0B8
:1016800030E0AE014F5F5F4F62E070E084EA94E0CB
:101690000E944107F801F0820F900F90DF91CF91E7
:1016A0001F910F91FF900895833040F5282F30E06F
:1016B000F901E351FD4F6083672B01F126513D4F46
:1016C000F9016081811106C099B19C7F692341E0D5
:1016D0000C94120B813049F493B126B19F73F0E45E
:1016E0002F9F90011124922BF1CF26B130E0359538
:1016F0002795359527952F706223E9CF0895A82F58
:10170000B0E0AA5ABD4F9C91292F30E0F901EE0FAD
:10171000FF1FE20FF31FE75BFA4FE0812E2F30E04F
:10172000F901EE0FFF1FE20FF31FEC5DFA4F80810E
:101730008F7B808380915402981308C0992319F0FD
:101740009150909354028FEF8C9308958823D9F38E
:10175000E0915502EF5FE0935502F0E0EB5FFD4F43
:101760009083F1CFFC0101900020E9F73197BF0190
:10177000681B790BAC0181E70C944008CF93DF9391
:10178000DB01909154029C3078F530915502682F1E
:1017900070E0FB01EA5AFD4F3323E1F0C32FD0E0A4
:1017A000CB5FDD4F8881808331503093550280813B
:1017B00023E0829FC0011124875B9A4F1A161B06F3
:1017C00074F4141615065CF49A01AD01DF91CF9103
:1017D0000C94980690839F5F90935402E8CF20E684
:1017E00039E040E252E0F2CF8BE491E0DF91CF911B
:1017F0000C94B20B1F93CF93DF93EC0118E0612F91
:10180000CE010E941707009711F00E94B31D1F5FC1
:101810001C30A9F78FEF8AA3FE013A96A296119287
:101820001192CE17DF07D9F7DF91CF911F9108955D
:101830008F929F92AF92BF92DF92EF92FF920F939F
:101840001F93CF93DF93EC01D901603609F0A0C05C
:101850008C91282F2F70F22E9BE0921708F498C0DD
:10186000807F803309F490C18D01E42E813338F4F8
:101870008031A9F1803209F469C181E08AC08036E3
:1018800009F4E0C1803709F4ECC18035B1F7622F6B
:10189000CE010E941707EC01009779F3B7E0BF155E
:1018A00008F4CAC1E881F9810680F781E02D099525
:1018B000EA89FB8980818F7E8083EA89FB89808128
:1018C000877F8083EA89FB8980818F778083EA899B
:1018D000FB8980818F7D80838A8D898FCECF129600
:1018E0008C901297912CB12CA12CE7E0880C991CBC
:1018F000AA1CBB1CEA95D1F713968C9190E0B0E03E
:10190000A0E0FEE0880F991FAA1FBB1FFA95D1F730
:1019100088299929AA29BB29F80121814C015D0157
:10192000822AF7E0FF1560F06F2DCE010E941707A5
:10193000009709F4A2CFB501A4010E9438019DCF00
:1019400024E0241708F5D8011496EC901497159606
:10195000DC90BAE0FB1609F4C4C0EBE0FE1609F413
:10196000D1C0F9E0FF1221C08DA19EA1892B61F5A4
:101970008FE190E00E94171D8C014D2D6E2D0E946D
:10198000E0161EA30DA320C08FE591E00E94B20BCC
:1019900080E0DF91CF911F910F91FF90EF90DF904A
:1019A000BF90AF909F908F9008958BA19CA1892BA1
:1019B00059F48FE190E00E94171D8C014D2D6E2D82
:1019C0000E94E0161CA30BA36F2DCE010E941707E7
:1019D000EC01892B09F451CFEE2DF0E0E951FB4FDA
:1019E00080818F3711F08AE08083ED2DF0E0E9519E
:1019F000FB4F80818F3711F08AE080831B8E1A8E17
:101A0000198E188E1F8A1E8A60E079E08DE390E0BF
:101A1000A50194010E947A1CF901C90103972430A1
:101A2000310510F481E090E09D8F8C8F6C856631DC
:101A300008F053C0C901969587958431910508F443
:101A400072C043979F8B8E8BC9010597369710F410
:101A500081E090E0998F888FC901880F991F280F26
:101A6000391F36952795369527952D30310508F481
:101A70005DC02C5031093B8F2A8F9091680084E023
:101A8000683048F021E06E3008F420E081E001C0C9
:101A9000880F2A95EAF7892B809368009C852DE6AC
:101AA00030E0983050F02BE630E09E3030F02CE6FD
:101AB00030E0963110F030E020E03C8B2B8B292F6A
:101AC00030E09830B0F581E001C0880F9A95EAF7D0
:101AD0008D8B8C8D9D8D0197F1F7CE010E94860232
:101AE000CCCE8FA198A5892B09F06ECF8FE190E025
:101AF0000E94171D8C014D2D6E2D0E94E01618A717
:101B00000FA362CF89A59AA5892B09F05DCF8FE13C
:101B100090E00E94171D8C014D2D6E2D0E94E01645
:101B20001AA709A751CF81E090E08CCF21E030E0E7
:101B3000A2CF9E3040F42850310981E001C0880FC7
:101B40002A95EAF7C5CF2E503109F7CF622FCE0183
:101B50000E9417075C01892B09F48FCEE80111E080
:101B60001E1508F08ACE6A81679566276795898178
:101B7000680FD501ED91FC910190F081E02DC50138
:101B800009951E5F2296ECCF11968C9111978111C9
:101B900026C03AA137300CF070CE822F90E0059627
:101BA000880F991FFE01E80FF91F4330A8F0139624
:101BB0008C91139720E8829FC001112412962C91DA
:101BC000822B9183808381E0830F8AA3C80FD11D6C
:101BD00087FDDA95FA8251CE11821082F4CF8130DE
:101BE00009F04BCE9AA119161CF08FEF8AA345CEAF
:101BF00080E0492F092E000C550B282F30E04217AA
:101C0000530774F480E0E82FF0E04E175F078CF084
:101C1000883020F4EC0FFD1F238122838F5FF3CFE8
:101C20002C0F3D1FD90112962C91F21661F38F5F94
:101C3000E4CF91509AA321CE0E947002CE010E945F
:101C4000B31D1BCE622FCE010E941707009709F427
:101C500014CEDC01ED91FC910680F781E02D099511
:101C60000CCEB7E0B21708F008CE622FCE010E946A
:101C70001707009709F032CF00CE85ED8093BC00A6
:101C80008091930390919403A0919503B091960352
:101C90000796A11DB11D23E0B695A7959795879549
:101CA0002A95D1F72091BC0024FD03C01092910326
:101CB000089540919303509194036091950370911E
:101CC0009603452B462B472B69F30097A105B105D9
:101CD00041F025E32A95F1F700000197A109B10928
:101CE000E1CF809192030C94FD049F92AF92BF923A
:101CF000CF92DF92EF92FF920F931F93CF93DF93D8
:101D0000C82ED12CE601CC59DB4FFE01ED57FF4F19
:101D100090819F3709F49FC0963061F490916D02D5
:101D2000992341F06630710529F010926D029FEF02
:101D3000909300017B01182F0EEF080F023108F578
:101D400064307105F1F0F601EA5AFD4F80818C3064
:101D5000C0F490E0FC01EE0FFF1FE80FF91FE75BF6
:101D6000FA4FE0818E2F90E0FC01EE0FFF1FE80F8D
:101D7000F91FEC5DFA4F808186FF03C0812F0E941E
:101D80007F0B52EF952E910E85E0891558F061E09A
:101D900070E032E0E316F10411F070E060E0892DAC
:101DA0000E9406090231C8F4E12FE695E695E69512
:101DB000F0E0E651FD4F2081312F377081E090E057
:101DC00001C0880F3A95EAF7E114F10421F03BE0F5
:101DD000E316F10401F5822B80835601AA0CBB1C8B
:101DE000F501E550FB4F118210828CE0E816F104FA
:101DF00008F0D3C0F701E150F14F0C94FD1C1F0F08
:101E00004C0F0E0F630F820FCD0FB90FCD0FCD0FFB
:101E1000CD0FC50F370F80958223DECF35E0391502
:101E2000D0F0023120F460E0812F0E94FB02CD57F8
:101E3000DF4F88818F3779F082E088830CC00231D0
:101E400050F460E0812F0E94FB02CD57DF4F888164
:101E50008F3709F01882DF91CF911F910F91FF907A
:101E6000EF90DF90CF90BF90AF909F900895023198
:101E700090F762E0812F0E94FB02CD57DF4F8881EF
:101E80008F3711F08BE08883F501E550FB4F81E03F
:101E900090E091838083DFCF0231E8F6FE01ED57B9
:101EA000FF4F8081833021F460E0812F0E94AF02D8
:101EB00061E0812F0E94FB02CD57DF4F88818F3771
:101EC00051F281E0BACF133049F08BEF810F8230AD
:101ED00028F087EF810F833008F0BDCF61E0812FBC
:101EE0000E94FB0261E0812F0E94FB0260E0812FD3
:101EF0000E94AF02CD57DF4F88818F3709F4ABCFF7
:101F000083E09BCF023108F0A6CFCD57DF4F888109
:101F10008F3711F084E08883F601EA5AFD4F808103
:101F20008F3FA9F090E0FC01EE0FFF1FE80FF91FB3
:101F3000E75BFA4FE0818E2F90E0FC01EE0FFF1F70
:101F4000E80FF91FEC5DFA4F808186FD84CF4FEFDB
:101F50005FEF6FEF7FEF812FDF91CF911F910F9197
:101F6000FF90EF90DF90CF90BF90AF909F900C9438
:101F7000BE0B1251123008F06ECFCD57DF4F888163
:101F80008F3709F468CF86E058CFCD57DF4F88816F
:101F90008F3709F460CF8AE050CF8DE791E0DF9171
:101FA000CF911F910F91FF90EF90DF90CF90BF9056
:101FB000AF909F900C94B20B0F931F93CF93DF932E
:101FC00081E080936E028DE695E00E94FA0B80918D
:101FD0006D02882329F010926D028FEF809300012B
:101FE0001092ED021092EA0210926A021092EE0232
:101FF0001092EB0210926B021092EF021092EC0220
:1020000010926C0206E512E0C0E0DFEF82EF8C0F69
:1020100062E070E0863030F08EEF8C0F823128F471
:1020200061E070E08C2F0E94750EF801D1938F0152
:10203000CF5FC43159F71092190310921803109210
:1020400055021092540210926E02DF91CF911F91AF
:102050000F9108954F925F926F927F928F929F920D
:10206000AF92BF92FF920F931F93CF93DF93F82EFF
:102070008B01D42FC22F6F3F760709F490C081E007
:1020800080939703F092B903109298031092BA03C9
:1020900088E594E00E9466068C2F0E941E058091C0
:1020A0005202909153028230910538F0880F991FA7
:1020B000880F991F05970197F1F70E944C034B0178
:1020C0005C018091910381116CC0CD2FD13208F059
:1020D000C0E281E080939103809390039FEF9093FF
:1020E0008F0310928E039C0F90938D0380936C034B
:1020F00090916C038F2D880F892B80936C038091B6
:102100006B03813009F0A1C010926B030E944C0355
:102110004B015C0180916C038093BB008091930321
:1021200090919403A0919503B0919603892B8A2BEB
:102130008B2BA1F00E944C0340909303509094038A
:102140006090950370909603681979098A099B0934
:10215000461657066806790608F444C08091BC000C
:1021600083FDD8CF85EC8093BC000E944C034B01CB
:102170005C0180919103813009F469C080918E03E4
:102180008C1710F4C0918E03EDE6F3E0A0E7B2E007
:1021900080E08C1761F191919D938F5FFACF00E001
:1021A0008CCF8091930390919403A0919503B0916B
:1021B0009603892B8A2B8B2B09F483CF0E944C0327
:1021C0004090930350909403609095037090960311
:1021D000681979098A099B0946165706680679061F
:1021E00008F06FCF809192030E94FD04C0E010922E
:1021F0009102C09390022D2F30E08C2F90E0281791
:1022000039070CF046C08EE891E00E94B20BF092C4
:1022100012020093130202E112E0AD2EB12CC801AC
:10222000825192408A159B050CF041C00F5F1F4FF1
:1022300090919002809191029817C9F188E594E0FD
:102240000E941F06F8018183EACF85EE8CCF809132
:10225000930390919403A0919503B0919603892BD9
:102260008A2B8B2B09F485CF0E944C03409093035B
:1022700050909403609095037090960368197909C3
:102280008A099B09461657066806790608F071CF39
:10229000A9CF821793070CF0BACF8BEA91E00E9486
:1022A000B20BD091900280919102D81BB0CFDE5F2B
:1022B0006D2F70E042E152E087E7DF91CF911F91EF
:1022C0000F91FF90BF90AF909F908F907F906F90F5
:1022D0005F904F900C944008EF92FF920F931F93E2
:1022E000CF93DF9380568B3108F03CC0EA01162F64
:1022F000E82FF0E0E258FE4E0C94FD1CDE13B21104
:10230000B211B211B211B211B211B211B211CD1398
:10231000B2113413B2118C13B2111213B612B211DE
:10232000B211B211B211B2119911B2117A12B211E5
:10233000FC12998195FF0AC087EC91E0DF91CF9163
:102340001F910F91FF90EF900C94B20B888131E0B8
:1023500096FB222720F9232798719830D1F148F471
:102360009923A9F0DF91CF911F910F91FF90EF90EA
:102370000895903109F44CC09831A1F720910001E3
:1023800012160CF472C08FEF80930001EBCF3093E4
:1023900097038093B903109298031092BA0302E056
:1023A000011778F4FE01E00FF11D61816795662742
:1023B00067958081680F88E594E00E9466060E5F4D
:1023C000EFCF81E00E941E0583E191E00197F1F7D4
:1023D000C9CF9A814B816630A1F430E8439FB001A8
:1023E0001124690F711D4D814795442747959C81A4
:1023F000490FDF91CF911F910F91FF90EF900C94B7
:102400002A10479544274795490F6FEF7FEFF1CF8B
:10241000E0910001E7301CF087EE91E08FCF3A8128
:102420009B816630D9F460E8969FA0011124430F88
:10243000511D9D819795992797953C81930FEF5F4B
:10244000E093000135E0E302F0011124E051FD4F7B
:102450008083528341839383248384CF97959927E4
:102460009795930F4FEF5FEFEACF90E0622F022E28
:10247000000C770B35E0492F50E06417750764F0C6
:10248000349FF001359FF00D1124E051FD4F408144
:10249000481719F09F5FEFCF90E085E0492F50E09B
:1024A000641775071CF19830F8F4FA0131968E9F85
:1024B000D0018F9FB00D1124A051BD4F3C91849F3E
:1024C000F001859FF00D1124E051FD4F30831196EE
:1024D0004D915C9112975283418313963C911397CF
:1024E000338314963C9134839F5FD8CF215020933F
:1024F000000138CF623078F0898160E8869F9001D2
:1025000011248881820F932F911D009721F09093C1
:1025100053028093520280916D02811123CFC0E05B
:102520008EEE8C0F823028F466E070E08C2F0E94D3
:10253000750ECF5FC431A1F781E080936D021092D8
:10254000910210929002109298031092BA030E9486
:10255000DF048EE096E09093B4028093B3028FE0A4
:1025600096E09093B8028093B702FCCE653008F4F1
:10257000F9CE18818EEF810F823108F0F3CE0981F8
:10258000EA80FB80CC81E12FF0E0EA5AFD4F8081A8
:102590008C30C0F490E0FC01EE0FFF1FE80FF91F34
:1025A000E75BFA4FE0818E2F90E0FC01EE0FFF1FFA
:1025B000E80FF91FEC5DFA4F808186FF03C0812F81
:1025C0000E947F0B80E8C89FA00111244F0D511D70
:1025D00090E8E99EB0011124600F711D812F0E94C7
:1025E000BE0B64E070E0812FDF91CF911F910F91BE
:1025F000FF90EF900C94750E623008F4B3CE898191
:10260000E0E88E9F900111248881820F932F911D05
:10261000009729F09093020180930101A3CE81E0FD
:1026200090E0F8CF623008F49DCE698170E01230FE
:1026300091F08A81F0E88F9FC0011124682B792BDB
:10264000133049F08B8190E090E4899F902D88278A
:102650001124682B792B8881DF91CF911F910F91E5
:10266000FF90EF900C94DF0980EF0E94DC008CE675
:102670000E94DC00CEEF84EF8C0F863020F582E0E4
:102680000E94DC008AE00E94DC008DEF8C0F82301B
:10269000E0F089EF8C0F8330F0F417C0C23158F7A7
:1026A00080E00E94DC0081E00E94DC008BE00E9460
:1026B000DC0081E00E94DC0081E00E94DC0081E01F
:1026C0000E94DC00D8CFC13001F783E00E94DC001B
:1026D00088E00E94DC00C23130F484E00E94DC001B
:1026E0008EE00E94DC0080EF8C0F823030F486E0B8
:1026F0000E94DC0081E00E94DC008FE70E94DC0089
:10270000CF5FC23159F687EFDF91CF911F910F91C3
:10271000FF90EF900C94DC00662309F423CEC8816F
:1027200080EF0E94DC008EE60E94DC008C2F0E946D
:10273000DC00C43140F7D0E0FE01E951FB4F80815D
:102740000E94DC00CC0FDD1F8E0105501B4FF801ED
:1027500080818F770E94DC00F801808191819C014B
:102760002078232B39F0880F892F881F990B8F77BA
:102770000E94DC00C550DB4F888199819C01222793
:10278000307C232B09F4BFCF990F880B990F982F1A
:10279000881F8F770E94DC00B6CF80EF0E94DC009C
:1027A0008AE60E94DC00C2EF8FE7C63008F48C2F67
:1027B0000E94DC00CF5FC630B9F7A5CF9A01462F43
:1027C00060E68DE695E0DF91CF911F910F91FF902C
:1027D000EF900C94180C1F920F920FB60F921124C9
:1027E0002F933F934F935F936F937F938F939F9319
:1027F000AF93BF93EF93FF93E0916903F0916A0366
:10280000309749F0A685B7858585968D91FF14C0D0
:102810009C918923A1F4FF91EF91BF91AF919F917A
:102820008F917F916F915F914F913F912F910F9079
:102830000FBE0F901F9018959C91892361F7A38973
:10284000B4899C918589809589238C938689978901
:102850000197F1F7608D718DA685B785558538E0B4
:1028600020E0CB010197F1F7822F90E095958795B5
:10287000282F4C91452309F02068315091F7868D1F
:1028800081FD20958091670390E001968F739927D1
:1028900030916803381799F0A0916703B0E0A95D03
:1028A000BC4F2C9380936703828D938D0197F1F732
:1028B000A389B4898C919589892B8C93ACCF868D13
:1028C0008160868FF1CF1F920F920FB60F92112465
:1028D0002F933F938F939F93AF93BF9380911F0349
:1028E00090912003A0912103B091220330911E0307
:1028F00023E0230F2D3758F50196A11DB11D20931C
:102900001E0380931F0390932003A0932103B09391
:1029100022038091230390912403A0912503B09179
:1029200026030196A11DB11D8093230390932403D8
:10293000A0932503B0932603BF91AF919F918F91F0
:102940003F912F910F900FBE0F901F90189526E882
:10295000230F0296A11DB11DD2CF1F920F920FB669
:102960000F9211242F933F934F935F936F937F9315
:102970008F939F93AF93BF93EF93FF938BEB93E072
:102980000E942904FF91EF91BF91AF919F918F9188
:102990007F916F915F914F913F912F910F900FBE5B
:1029A0000F901F9018951F920F920FB60F9211243F
:1029B0002F938F939F93EF93FF93E091CB03F0912D
:1029C000CC038081E091D103F091D20382FD1BC042
:1029D00090818091D4038F5F8F732091D5038217EC
:1029E00041F0E091D403F0E0E554FC4F958F8093E3
:1029F000D403FF91EF919F918F912F910F900FBE74
:102A00000F901F9018958081F4CF1F920F920FB6F0
:102A10000F9211242F933F934F935F936F937F9364
:102A20008F939F93AF93BF93EF93FF938091B900E0
:102A3000887F803609F44AC0F0F5883209F4A7C0CF
:102A400018F5803109F49BC0B8F4882309F4F9C063
:102A5000883009F494C0FF91EF91BF91AF919F919D
:102A60008F917F916F915F914F913F912F910F9037
:102A70000FBE0F901F901895883109F488C08032DE
:102A800051F780938F0314C0803409F49DC040F443
:102A90008033B9F38833F9F680938F0385ECB0C0A7
:102AA000803509F485C0883509F496C0883499F6D4
:102AB0000E943D0ED0CF883909F48CC038F5883794
:102AC00029F050F4883611F0803729F683E080939E
:102AD00091031092D90257C0883809F47BC080391D
:102AE00019F0803809F0B7CF8091D902803208F010
:102AF00071C0E091D90281E08E0F8093D90280915C
:102B0000BB00F0E0E754FD4F80833DC0803B39F0CF
:102B1000E0F4803A09F479C0883A09F09CCF84E067
:102B2000809391031092B6021092B502E091B30225
:102B3000F091B40209958091B50281110FC081E036
:102B40008093B5021092930209C0803C09F4A6CF8D
:102B5000883C09F4A3CF883B09F07DCFE091B60211
:102B600081E08E0F8093B602F0E0ED56FD4F80813C
:102B70008093BB009091B6028091B50229C08091EC
:102B80006C038093BB0085EC8093BC0064CF909174
:102B90008E0380918D03981758F5E0918E0381E0A4
:102BA0008E0F80938E03F0E0E359FC4F8081E9CFD4
:102BB000E0918E0381E08E0F80938E038091BB00A5
:102BC000F0E0E359FC4F808390918E0380918D0358
:102BD0009817C8F285E8D8CFE0918E0381E08E0F78
:102BE00080938E038091BB00F0E0E359FC4F80831B
:102BF0008091900381115CCF81E080936B0384EA24
:102C00008093BC001092910326CF85EC8093BC008A
:102C1000109291038091D902803230F4E091D90270
:102C2000F0E0E754FD4F10826091D90270E0E0912E
:102C3000B702F091B80289EB92E009951092D9029F
:102C40000ACF10928F0334CF1F920F920FB60F92BC
:102C500011242F933F934F935F936F937F938F93A1
:102C60009F93AF93BF93CF93DF93EF93FF938091A5
:102C70006F02C0914805D0E087FF24C01092850004
:102C80001092840080916F028F5F80936F02809119
:102C90006F02082E000C990B8C179D0724F480916D
:102CA0006F028C30C4F1809184009091850004966D
:102CB00080349C4908F47AC080918400909185000A
:102CC000049676C080916F02082E000C990B8C1729
:102CD0009D07C4F6E0916F028E2FEE0F990BFC0159
:102CE000EE0FFF1FE80FF91FEC5DFA4F808186FFA2
:102CF000C9CFE0916F028E2FEE0F990BFC01EE0F02
:102D0000FF1FE80FF91FEC5DFA4F808160E08F73C1
:102D10000E94AF02B7CF2091840030918500E091EE
:102D20006F028E2FEE0F990BFC01EE0FFF1FE80FC5
:102D3000F91FEC5DFA4F81819281820F931F90936E
:102D4000890080938800E0916F028E2FEE0F990B1F
:102D5000FC01EE0FFF1FE80FF91FEC5DFA4F8081B9
:102D600086FF11C0E0916F028E2FEE0F990BFC01D0
:102D7000EE0FFF1FE80FF91FEC5DFA4F808161E055
:102D80008F730E94AF02FF91EF91DF91CF91BF91BE
:102D9000AF919F918F917F916F915F914F913F91F3
:102DA0002F910F900FBE0F901F90189580E49CE913
:102DB00090938900809388008FEF80936F02E3CF18
:102DC0000F931F93CF93DF93EC01162F042F1B82D9
:102DD0001A8288EE93E0A0E0B0E08C839D83AE83FE
:102DE000BF838DE091E0998388831F8A1E8A198EA4
:102DF000188E1B8E1A8E1D8E1C8E6E8D6E7F6D7FB3
:102E00006E8F6695617081E06827842F0E94AF0203
:102E100061E0802F0E94FB02802F90E0FC01E255D0
:102E2000FF4FE491E88BFC01E656FF4FE491F0E0A0
:102E3000EE0FFF1FE057FF4F859194919A8B898B7E
:102E400060E0812F0E94FB028E8D81FD04C061E055
:102E5000812F0E94AF021C87812F90E0FC01E25578
:102E6000FF4FE491ED87FC01E656FF4FE491F0E05F
:102E7000EE0FFF1FEA57FF4F859194919F878E8732
:102E8000DF91CF911F910F9108951092BE03109280
:102E9000BD0388EE93E0A0E0B0E08093BF03909381
:102EA000C003A093C103B093C2032FE131E030937C
:102EB000BC032093BB0325EC30E03093C803209380
:102EC000C70324EC30E03093CA032093C90320ECFD
:102ED00030E03093CC032093CB0321EC30E03093EF
:102EE000CE032093CD0322EC30E03093D003209327
:102EF000CF0326EC30E03093D2032093D10310921D
:102F0000D4031092D5031092D6031092D7031092D7
:102F10005B0410925A0480935C0490935D04A09328
:102F20005E04B0935F0481E391E090935904809331
:102F3000580484E694E01092A5041092A40490939F
:102F4000A8048093A70420E430E03093AA042093DF
:102F5000A9041092AB041092AC041092AE0410922B
:102F6000AD041092AF041092B1041092B00410920C
:102F7000B3041092B2041092B5041092B4041092EB
:102F8000B7041092B6041092B9041092B8041092CB
:102F9000BB041092BA041092BD041092BC041092AB
:102FA000C3041092C2041092C5041092C40410927B
:102FB000C7041092C6041092C9041092C80410925B
:102FC000D7041092D6041092A6041092E404109232
:102FD000E6041092E504109223052CE830E03093CB
:102FE000CB042093CA0426E930E03093CD0420932B
:102FF000CC0420EA30E03093CF042093CE042AEAB8
:1030000030E03093D1042093D00424EB30E03093AF
:10301000D3042093D2042EEB30E03093D5042093D8
:10302000D40428EC30E03093D9042093D80429EC60
:1030300030E03093DB042093DA0421E039E0309370
:10304000DD042093DC049093BF048093BE0424EA43
:1030500033E03093DF042093DE049093C104809327
:10306000C00484ED90E09093E1048093E00483E455
:1030700091E090936E0580936D05109291051092EA
:10308000900510929305109292051092950510925A
:10309000940510929705109296058FEF80938F05F7
:1030A000E9E4F5E02FEF48EB5BE0809148058C30D8
:1030B000B8F491E0980F90934805808390E0DC018C
:1030C000AA0FBB1FA80FB91FAC5DBA4F12965C9335
:1030D0004E931197339685E0ED36F80731F7089552
:1030E0002083F8CF789484B5826084BD84B58160F4
:1030F00084BD85B5826085BD85B5816085BD8091C3
:103100006E00816080936E0010928100809181003A
:103110008260809381008091810081608093810032
:10312000809180008160809380008091B1008460F4
:103130008093B1008091B00081608093B000809155
:103140007A00846080937A0080917A008260809314
:103150007A0080917A00816080937A0080917A0071
:10316000806880937A001092C10086E08093E40426
:103170008091E5049091E6040E94B31DC091E4049F
:10318000D0E0CE0101960E94171D9093E604809333
:10319000E504FC01EC0FFD1F108222E0DC012C9302
:1031A00025E011962C93AE01425051096CEF71E06D
:1031B00002960E943C1E8FED99E09093E502809369
:1031C000E40283E399E09093E3028093E20286E0D5
:1031D00099E09093E1028093E00284E59BE0909374
:1031E000DF028093DE0285E79EE09093DD0280930C
:1031F000DC028DEF9AE09093DB028093DA028CE69A
:1032000091E19093E7028093E6028CED9FE090932A
:10321000E9028093E80281E08093230540E051EECB
:1032200060E070E08BEB93E00E9438018091230511
:1032300081114FC061E08DE00E94FB0262ED70E001
:1032400080E090E00E94710361E08DE00E94AF0297
:1032500068E270E080E090E00E94710360E08DE041
:103260000E94AF0262ED70E080E090E00E94710386
:1032700061E08DE00E94AF0268E270E080E090E0E3
:103280000E94710360E08DE00E94AF026AEF70E07F
:1032900080E090E00E947103C5E062ED70E080E0A4
:1032A00090E00E94710361E08DE00E94AF0268E24D
:1032B00070E080E090E00E94710360E08DE00E9489
:1032C000AF02C15051F76DE770E080E090E00E94DE
:1032D00071038BEB93E09093E3048093E20490936B
:1032E000A5048093A40484EA94E00E94980184E6F3
:1032F00094E00E948D080E94DC0F25E0722E00E011
:1033000010E06624639432E0E32EF12CCC24C394C5
:10331000D12C8091ED02882349F069B18091EA02B5
:1033200068236C7F40E080E00E94120B8091EE02E7
:10333000882379F063B186B16F73B0E48B9FC001CD
:103340001124682B8091EB02682340E081E00E9409
:10335000120B8091EF02882359F066B18091EC0244
:103360008F7066956695682340E082E00E94120B9C
:103370008091E2049091E304DC01ED91FC910084E2
:10338000F185E02D0995892B09F4CEC18091E204E5
:103390009091E304DC01ED91FC910284F385E02D32
:1033A00009959C018F3F980719F3982F8091AF04DE
:1033B000882309F492C0973F09F07EC01092AF04B1
:1033C000A091A704B091A8046C916137C1F169374D
:1033D00009F05CC0E091DC04F091DD04309741F22B
:1033E0008091B0049091B1048330910560F430E095
:1033F00020E050E040E070E060E08091BE049091F9
:10340000BF040995B5CFBD016D5F7F4F03970E9443
:103410001901BC016D5F7F4F80E00E94E900E091DF
:10342000A704F091A8049F012D5F3F4F428150E017
:10343000618170E0E091DC04F091DD04DECF8091E9
:10344000D8049091D904892B09F492CFBD016F5F04
:103450007F4F8091B0049091B10401970E941901AF
:10346000BC016F5F7F4F80E00E94E9006091A7047C
:103470007091A8046F5F7F4FE091D804F091D90458
:103480008091C4049091C504099572CFE091DA044B
:10349000F091DB04309709F46BCF9D012F5F3F4F14
:1034A0004091B0045091B104415051098091C6043B
:1034B0009091C70409955CCF6091B0047091B104FC
:1034C000822F0E94E9008091B0049091B10401968E
:1034D0009093B1048093B0044BCF6091AD04709190
:1034E000AE046115710509F4B1C027FDAFC061508C
:1034F00071097093AE046093AD04822F0E94E900BD
:103500008091AD049091AE04892B09F031CF809168
:10351000AB04882309F42CCF803D09F483C040F428
:10352000803949F1803C09F469C01092AB0420CF86
:10353000843FE1F1853F09F44DC0803EB1F7E09151
:10354000CA04F091CB04309781F3A091A704B09105
:10355000A8044C9120E8429FC001112411964C917F
:10356000480F592F511D6091AC048091B204909185
:10357000B3040995DACFE091CC04F091CD043097F3
:10358000A1F2A091A704B091A8044C9120E8429F19
:10359000C001112411964C91480F592F511D609173
:1035A000AC048091B4049091B504E3CFE091D204CF
:1035B000F091D304309709F4B8CFA091A704B0914B
:1035C000A8044C9150E011966C918091BA049091AE
:1035D000BB04CFCFE091D404F091D504309709F427
:1035E000A4CFA091A704B091A8044C9150E01196EB
:1035F0006C918091BC049091BD04BBCFE091CE044E
:10360000F091CF04309709F490CFA091A704B09126
:10361000A8044C9150E06091AC048091B604909164
:10362000B704A7CFE091D004F091D104309709F40A
:103630007CCFA091A704B091A8044C9150E0609178
:10364000AC048091B8049091B90493CF903F30F4CA
:10365000822F8F708093AC04922F907F903FF1F176
:1036600090F4903CB1F150F4903909F081CEF09291
:10367000AE04E092AD049093AB047ACE903D49F154
:10368000903EA9F375CE993F09F442C028F48CE02E
:10369000890F823060F36CCE9F3F09F069CE1092A3
:1036A000AE041092AD041092AB041092AC0490E002
:1036B00080E02091A9043091AA0482179307A8F40E
:1036C000E091A704F091A804E80FF91F1082019679
:1036D000F0CFD092AE04C092AD04CDCF6092AF04D3
:1036E0001092B1041092B00443CE1092AF04109225
:1036F000B1041092B004E091E004F091E1048091F3
:10370000C8049091C904309709F432CE099530CE9F
:10371000E091DE04F091DF04309709F429CE809126
:10372000C0049091C104F2CF8FB7F89480901F032A
:1037300090902003A0902103B09022038FBF80912E
:103740001A0390911B03A0911C03B0911D0340919B
:1037500001015091020170E060E0881A990AAA0AFA
:10376000BB0A481559056A057B0508F051C0840F4E
:10377000951FA61FB71F80931A0390931B03A09356
:103780001C03B0931D0394E6A92E94E0B92EC2EF5A
:10379000C630C8F4F501ED57FF4F8081823099F4AF
:1037A00080911803909119030C2E02C0959587956E
:1037B0000A94E2F780FF07C08C2F0E943703BC01F8
:1037C0008C2F0E94E007CF5F8FEFA81AB80AC6308F
:1037D000F9F68091000187FD1BC0C0E02C2F30E07E
:1037E00080910001082E000C990B8217930784F03A
:1037F000729EF001739EF00D1124E051FD4F618126
:1038000072812481438180810E942A10CF5FE6CF9C
:1038100080918F0587FD62C0412C842D90E020911E
:103820008F05022E000C330B281739070CF456C0F5
:1038300083599A4FDC0112965C90652D8DE695E0D8
:103840000E941707EC01892B09F446C0B7E0B515B3
:1038500038F48091690390916A03C817D907E1F59C
:10386000E52DF0E0EE0FFF1FE958FA4F80809180C0
:10387000E881F9810084F185E02DCE0109955C0194
:10388000181619064CF51814190424F4881699060C
:103890000CF4540180EF0E94DC0080E60E94DC0002
:1038A000852D80640E94DC00E881F9810284F38523
:1038B000E02DCE010995982E8F770E94DC00892D8E
:1038C000881F8827881F0E94DC00E1E0AE1AB1083B
:1038D00059F787EF0E94DC0043949FCF0115110533
:1038E00009F417CD0E941504882309F412CD0E9413
:1038F00000000FCD052E97FB1EF400940E94911C32
:1039000057FD07D00E94AC1C07FC03D04EF40C946A
:10391000911C50954095309521953F4F4F4F5F4FEB
:10392000089590958095709561957F4F8F4F9F4F2B
:1039300008950E94CE1CA59F900DB49F900DA49F4A
:10394000800D911D11240895B7FF0C94991C0E94BD
:10395000991C821B930B0895A1E21A2EAA1BBB1B74
:10396000FD010DC0AA1FBB1FEE1FFF1FA217B3074B
:10397000E407F50720F0A21BB30BE40BF50B661F61
:10398000771F881F991F1A9469F760957095809525
:1039900090959B01AC01BD01CF010895A29FB0019C
:1039A000B39FC001A39F700D811D1124911DB29F73
:1039B000700D811D1124911D0895991B79E004C09B
:1039C000991F961708F0961B881F7A95C9F780955E
:1039D000089597FB072E16F4009407D077FD09D0C1
:1039E0000E94031D07FC05D03EF4909581959F4FE2
:1039F0000895709561957F4F0895EE0FFF1F059014
:103A0000F491E02D0994AA1BBB1B51E107C0AA1F2A
:103A1000BB1FA617B70710F0A61BB70B881F991F6F
:103A20005A95A9F780959095BC01CD0108950F9303
:103A30001F93CF93DF938230910510F482E090E0E2
:103A4000E0919A05F0919B0530E020E0B0E0A0E025
:103A5000309799F42115310509F44AC0281B390B18
:103A600024303105D8F58A819B816115710589F172
:103A7000FB0193838283FE0111C040815181028149
:103A8000138148175907E0F04817590799F4109720
:103A900061F012960C93129713961C933296CF01F5
:103AA000DF91CF911F910F91089500939A05109384
:103AB0009B05F4CF2115310551F04217530738F01B
:103AC000A901DB019A01BD01DF01F801C1CFEF01BE
:103AD000F9CF90939B0580939A05CDCFFE01E20F1D
:103AE000F31F819391932250310939832883D7CFD3
:103AF0002091980530919905232B41F420910501DF
:103B00003091060130939905209398052091030187
:103B1000309104012115310541F42DB73EB7409194
:103B2000070150910801241B350BE0919805F09195
:103B30009905E217F307A0F42E1B3F0B281739074E
:103B400078F0AC014E5F5F4F2417350748F04E0FF9
:103B50005F1F5093990540939805819391939FCF50
:103B6000F0E0E0E09CCFCF93DF930097E9F0FC0119
:103B7000329713821282A0919A05B0919B05ED01B4
:103B800030E020E01097A1F420813181820F931F53
:103B900020919805309199052817390709F061C0DF
:103BA000F0939905E0939805DF91CF910895EA018C
:103BB000CE17DF07E8F54A815B819E01411551056B
:103BC000B1F7E901FB83EA8349915991C40FD51FED
:103BD000EC17FD0761F4808191810296840F951F97
:103BE000E90199838883828193819B838A83F0E0B2
:103BF000E0E012968D919C9113970097B9F52D9165
:103C00003C911197CD010296820F931F2091980548
:103C1000309199052817390739F6309751F51092E8
:103C20009B0510929A05B0939905A0939805BCCF77
:103C3000D383C28340815181840F951FC817D90750
:103C400061F44E5F5F4F88819981480F591F5183FE
:103C500040838A819B81938382832115310509F0FA
:103C6000B0CFF0939B05E0939A059ECFFD01DC0158
:103C7000C0CF13821282D7CFFB01DC0141505040EC
:103C800048F001900D920020C9F701C01D924150EB
:0A3C90005040E0F70895F894FFCFCC
:103C9A00FF130000009C05800000000000DB01AB60
:103CAA00039506DA0137024F02C201000000004BF9
:103CBA0004AB03D80398040904E703FB03000000DC
:103CCA0000660639069506DA0132061F0610060056
:103CDA0000000030073107180CFA0B4D6178207389
:103CEA006572766F732061747461636865640053EA
:103CFA007065636966792073657269616C205258D0
:103D0A0020616E642054582070696E7300556E6B82
:103D1A006E6F776E2070696E206D6F646500493230
:103D2A00433A20546F6F206D616E79206279746511
:103D3A0073207265636569766564004932433A2087
:103D4A00546F6F2066657720627974657320726597
:103D5A006365697665640031302D62697420616437
:103D6A006472657373696E67206E6F742073757001
:103D7A00706F7274656400746F6F206D616E792064
:103D8A0071756572696573007372635C6D61696EE2
:063D9A002E6370700000B2
:00000001FF
